:020000000C945E
:1000020026010C9400000C9400000C9400000C9447
:1000120000000C9400000C9400000C9400000C945E
:1000220000000C9400000C9400000C9400000C944E
:1000320000000C9455010C9400000C9400000C94E8
:1000420000000C9400000C947A010C9400000C94B3
:1000520000000C9400000C9400000C9400000C941E
:1000620000000C9400001027E80364000A0001005D
:10007200001000011000010000000000000000005C
:10008200000000000000000000000000000000006E
:10009200000000000000000000000000000000005E
:1000A2000000000000000000000025630041542B06
:1000B200434D47533D2200220D004154442B003B47
:1000C2000D00415448300D0052494E470041542B17
:1000D200434C49503D310D0041542B434C49503D56
:1000E200300D00434D540061646D696E313233341A
:1000F20035360061646D5F70682069733A0041545F
:100102002B434D47443D312C340073775F706F773A
:1001120000535720737769746368656421007761BF
:100122006974206D6F64656D2E2E2E0041540D0092
:100132004F4B004D6F64656D206F6B210041542B56
:10014200434D47463D310D0041542B435343533DEC
:100152002247534D220D0041542B434E4D493D320F
:100162002C320D0041542B435245473F0D00435260
:1001720045473A20302C31005253545F47534D00CB
:10018200776F726B696E672E2E2E000080C00A0098
:100192000003AF0003000A03B90005000D03BC0011
:1001A20003001203C10006001503C40005001B036F
:1001B200CA000B002003CF000B002B03DA0006005D
:1001C2003603C4000B003C03DA0006004703C400F8
:1001D20004004D03E5000C005103E9000B005D0330
:1001E200F5000C006803000104007403E500070039
:1001F20078030C010D007F0313010E008C03200114
:1002020004009A032E0103009E0332010A00A10397
:1002120035010B00AB033F010F00B6034A010D008D
:10022200C50359010A00D20366010A00DC0370010A
:100232000800E6037A010B00EE03F5000B00F90358
:100242008201020012058E010000F894EE27EFBB36
:10025200F1E0F5BFE5BF8DE0A2E0BB27ED938A9503
:10026200E9F780E098E0A0E0B1E0ED930197E9F7CB
:10027200E0E9F1E085919591009761F0A591B59142
:1002820005901590BF01F00105900D920197E1F7DD
:10029200FB01F0CFE0E0EEBBEFEFEDBFE8E0EEBF39
:1002A200C0E0D3E00C94F003AA93BA93EA93FA93D2
:1002B200EFB7EA930E94A806AEE0B5E00E94AF064F
:1002C200A0910E05B0910F05A13BE4E0BE0750F0EE
:1002D200E0E0E0930E05E0930F05E0911005E16088
:1002E200E0931005E991EFBFF991E991B991A991D4
:1002F2001895EA93FA93EFB7EA931A930A93109137
:10030200C0000091C600E12FEC7151F4E42D43943A
:10031200F0E0EC5FFB4F0083EEEFE41509F44424B8
:1003220009911991E991EFBFF991E9911895E0E8E6
:10033200E0936100E0E0E0936100EFEFE4B9E0E018
:10034200E5B9E4E0E7B9E8B9EFEFEAB9E0E0EBB923
:10035200E4BDE5BDE6BDE7BDE8BDE0938000E3E0B6
:10036200E09381000E94A806E0E0E0938700E0931A
:100372008600E0938900E0938800E0938B00E0938D
:100382008A00E093B600E093B000E7E0E093B100AA
:10039200E4E6E093B200E0E0E093B300E093B4005F
:1003A200E0936E00E1E0E0936F00E0E0E093700024
:1003B200E0936900EDBBE0936800E093C000E8E9D8
:1003C200E093C100E6E0E093C200E0E0E093C50004
:1003D200E7E6E093C400E0E8E0BFE0E0E0937F00FE
:1003E200E0937E00E0937C00E0937A00E0937B0050
:1003F200E0E5ECBDE1E0EDBDE0E0E093BC00A0E1B2
:100402000E947104089560971A9310E0442009F441
:1004120045C00E94B5060E94340410E04116D8F18E
:10042200E12FF0E0EC5FFB4FA081AD3091F10E9433
:10043200B906A081AA3021F40E94B906A0E2A083E5
:10044200A12FBB27E0E2F0E00E944C07309711F4A5
:10045200103009F406C0ACEDB5E00E9427070E94F7
:100462003404FE013196FA93EA93ECEAF0E0FA934F
:10047200EA930E94B906E081FF27662777270E9448
:10048200620784E00E9423062896DE0111960E94EC
:1004920055041F5FC3CF44240E94BE061881619693
:1004A2000895BA93AA936E978EE1A0E0B0E0EAE7CE
:1004B200F0E00E9492070E94C206A0E0B3E00E9410
:1004C200C606A2E0B5E00E94C606AAE0B3E00E941A
:1004D20067060E94B506DE010E94C906AE8DBF8D79
:1004E2000E94A804AAE10E949E04A096089564971F
:1004F20084E1A0E0B0E0E8E9F0E00E9492070E9407
:10050200C206ADE0B3E00E94C606A2E0B5E00E94DA
:10051200C606A2E1B3E00E9467060E94BE06DE01A3
:100522000E94A804A0EEBEE20E942707A5E1B3E064
:100532000E94C9060C942106AA933D9AE881E030F4
:1005420021F4ACEDB5E00E942707A881A13021F487
:10055200A8E5BBE10E9427073D98A8EBBBE00E94FB
:1005620027070C94A6040E94CC06ABE1B3E00E94DC
:100572009106309789F1E0911105EF5FE093110543
:10058200A0E2B3E00E94C9060E94CC06A2E0B5E058
:100592000E949106309779F00E94B506ABE2B3E073
:1005A2000E94C906A6E3B3E00E94A804E0E0E0933B
:1005B2001105A0E0C1DFA0911105A33068F0E0E0D1
:1005C200E09311050E94B506ACE3B3E00E94C906B0
:1005D200A7E4B3E00E94A80408951A9310E010E083
:1005E2001B3068F4E12FF0E0EE5FFA4F0F010E943A
:1005F200D1060E946707D001EC931F5FF1CFE0E0C4
:10060200E0930D0530C01A9310E00E94CC06ADE4D1
:10061200B3E00E949106309741F00E94CC06A1E51A
:10062200B3E00E949106309709F41DC010E01B3020
:1006320058F40E94D106E12FF0E0E25FFB4FE08127
:100642000E9473071F5FF3CF0E94D106E0E00E9471
:10065200730709D1ADE5B3E00E94D606A8E8B3E17D
:100662000E942707BADF199108950E94B506A8E6ED
:10067200B3E00E94A804A4E6B0E066C00E94CC06E3
:10068200A4E7B3E00E949106309741F00E94CC06A5
:10069200A2E0B5E00E949106309709F40EC00E94D4
:1006A200CC06A8E7B3E00E949106309729F0AFE7A5
:1006B200B3E0F7DEA1E040DFD8DF0895A4DFDEDF9C
:1006C20008951A930A9310E001E0003009F11F5FC8
:1006D2002D98A0EDB7E00E9427072D9AC4D0ACE870
:1006E200B3E0E2D0153031F410E041D0A0EDB7E034
:1006F2000E942707AAE9B3E00E94C9060E94CC061D
:10070200AEE9B3E00E949106309709F000E0DDCF38
:10071200099119910895D5DFA6D0A1EAB3E0C4D01A
:100722000E94E106ABEAB3E00E94A8040E94E1063F
:10073200A6EBB3E00E94A8040E94E106A5ECB3E098
:100742000E94A804A8EEB3E00E942707089544205F
:1007520069F00E94B50607DFB1DF55DE0E94CC06C4
:10076200E0E0EA93AEEFB0E00E9457060895429AA5
:10077200AEE5B1E00E94270742980895E091100586
:10078200E170C1F0A2EDB3E00E94C9060E94CC065E
:10079200ACEDB3E00E949106309739F464D0A6EE36
:1007A200B3E082D00E94BE06E2DFE0911005EE7F48
:1007B200E09310050895319B04C0E0911005E270AA
:1007C20009F005C094DEE0911005E26005C03199A0
:1007D20005C0E0911005ED7FE09310050895A7DDB7
:1007E2002A9AFBDE40D0AEEEB3E00E94D6067894A1
:1007F20092DF39D0A9EFB3E057D0A9DFBFDF03DE24
:100802000E94BE06D8DFF9CFFFCFAA93EBB1EF70FB
:10081200AE2FE881E07FEA2BEBB98BE18A95F1F705
:10082200299A8BE18A95F1F729988BE18A95F1F75C
:100832008CC0AA93A881E9DFE881E295E883A881C8
:10084200E4DF88EC90E00197F1F77FC0AA93E8819A
:10085200F0E0EE5EFA4FE081A981AE0FEADF398067
:10086200688022960895A2E00E94E506ACE0E1DFEE
:10087200A1E00E94E506E0E06E2E3E2E0895AA93C6
:10088200A881AA3011F0351448F0E0E0EA936394AD
:10089200A62DDCDFA881AA3009F457C03394289A28
:1008A200A881C7DF289851C0BA93AA931A930E94CD
:1008B200EB0619F0A12FE3DFFACF54C0BA93AA9343
:1008C2001A93A981BA811196A983BA8311970E94BA
:1008D20067071E2FE03019F0A12FD1DFF2CF42C0FF
:1008E200AA93EAB1E06FEAB9219A209A279A299845
:1008F20028982F985880E881E058E0931405E88101
:10090200E054E0931505A4E1B0E00E9427070E949D
:10091200F3060E94F3060E94F306A0E276DF80E966
:1009220091E00197F1F7A8E284DFA4E082DFA5E875
:1009320080DFA6E07EDF97DF08C0AA93E091C000C7
:10094200E072E1F3E881E093C60021960895BA933C
:10095200AA931A930E94EB0619F0A12FEEDFFACFA9
:10096200AAE0EBDF188123960895BA93AA931A930B
:100972000A93AA81BB8112960E945A07309729F1E5
:10098200AA81BB8114960E945A078F01309761F0A9
:100992000230E0E01E0780F0F80131978F01AA8152
:1009A200BB811496ED93FC93AA81BB8112960E949F
:1009B200AF063197AC81A083AA81BB810E945A07FE
:1009C200FF2312F00E94AF0606C0AA81BB81EFEF9F
:1009D200FFEFED93FC931981088176C1BA93AA9334
:1009E20026970E94840710E0AC85BD85E0E0F0E028
:1009F200ED93FC93EA89FB893196EA8BFB8B319765
:100A0200E4912E2FE03009F415C1E12FE03039F4E2
:100A1200253211F411E002C00E94FB060AC1E13046
:100A2200A9F4253219F40E94FB0602C112E040E04B
:100A320000E02D3211F401E0FCC02B3211F44BE244
:100A4200F8C0203211F440E2F4C002C0E23039F4BE
:100A520050E013E0203311F40068EBC003C0E33030
:100A620009F0E7C0203310F02A3308F007C0AAE0EB
:100A72005A9F502DE22FE0535E0FDBC0E22FE33688
:100A820049F40E940207E889F989A481AA930E9485
:100A92000807CEC0E33741F40E9402070E940E0706
:100AA2000E9478061E2F0AC0E03761F40E940207F6
:100AB2000E940E070E9484061E2F086002600F77B4
:100AC20030E034C0E43611F0E93611F4046002C0BB
:100AD200E53731F4E8E6F0E0EE83FF8315E00CC081
:100AE200E83511F4086003C0E83709F0A1C0E2E775
:100AF200F0E0EE83FF8314E002FF14C00E940207BD
:100B02000E941807AB85AA233AF4EA85FB850E9466
:100B12003507EA87FB874DE2403011F01F5F01C0C5
:100B22000B7F04C00E9402070E94180700FD11C03B
:100B3200151778F407FF08C002FF04C00B7F242FAB
:100B4200115001C020E301C020E20E94FB06515077
:100B5200EFCF312F01FF17C03030A1F003FF06C0E5
:100B6200EE81FF812591EE83FF8305C0AE81BF81B7
:100B72002D91AE83BF830E94FB06503009F0515085
:100B82003150EACF4BC020E3EE81FF810E945E0725
:100B9200E887F987EE81FF813296EE83FF83E8854D
:100BA200F985AA85BB85AE17BF0750F02F5FA885D0
:100BB200B985EA85FB85EA1BFB0BEA87FB87EFCF4A
:100BC2002A3328F003FF02C0295F01C0295D04FD1A
:100BD2001AC0213320F4A885B985119709F409C0F8
:100BE200531710F000FF01C013C020E207FF0BC033
:100BF20020E3006102FF07C00B7F4A930E940807AF
:100C0200503009F051500E94FB06503009F051500B
:100C12003150A885B985129708F0B5CF00FF08C0FA
:100C2200503031F05150E0E2EA930E940807F8CFC9
:100C320010E0E0CEAC85BD850E945A070E948B076A
:100C420064960895FF92F82E26970E9486070E94C6
:100C52002007309719F4EFEFFFEF23C0DE0116965D
:100C62000E9431078D010E942007EE83FF83E0E09E
:100C7200E887E987DE011A960E9431070E945A0727
:100C8200FA93EA931A930A93E6EBF4E0FA93EA935F
:100C9200DE011A96A3DE9F01AE81BF81E0E0EC93F4
:100CA200F9010E948D072A96FF900895BA93AA939C
:100CB200B981A881109631F0FC81EB816A81619340
:100CC2001197E9F7EB81FC8125960895BA93AA93CF
:100CD200E991F991A991B991CD016D916623E9F755
:100CE200119761916D936623E1F7FC010895BA9320
:100CF200AA93A991B991EE27FF276D91662311F06E
:100D02003196FBCF0895BA93AA93AA27BB27E991FC
:100D1200F9910590002011F01196FBCFFD01089585
:100D2200BA93AA93AA81BB81CD01E881F98171911D
:100D3200772311F4FC0109C06D916717C1F3019685
:100D4200DC01662391F7EE27FF2724960895EEE94A
:100D5200E0938500E8E5E09384000895ED91FD912C
:100D62003196FE93EE930895A4E6B0E00C94270723
:100D7200E12FF0E0EC5FFB4F0895A4EFB1E00C949B
:100D82002707FE01FA93EA9308950E946706F9CFB6
:100D92000E94A804E9CFE4E0F4E0FA93EA9308950C
:100DA200A12FB0E0A050B04008950E945504E0E0A9
:100DB200EA93A1E00E942704A0E0B0E00C945F0453
:100DC200A8EEB3E00C9427070E941A04A3E0B0E057
:100DD2000C942707A981BA81ED91A983BA831E2FAA
:100DE200E0300895A0E30E94060480E991E00197B3
:100DF200F1F708952A93AD85BE85EF85F8890995A7
:100E02000895E889F9893497E88BF98B0895AD85BF
:100E1200BE85EF85F88909950895A889B989149640
:100E22000E945A07EE83FF83AE81BF810895A8898D
:100E3200B98914960E945A07EA87FB870895DE0152
:100E42001C960E9431070E945A070895109639F0A5
:100E520080EA9FE00197F1F7A8951197C9F70895E5
:100E62000024AF0DB01D0895F195E195F04008956D
:100E72000024112490E1AA0FBB1F001C111C0E1AA2
:100E82001F0A18F40E0E1F1E01C0A1609A9599F751
:100E9200FD01D0010895E894B7FF04C0A095B09574
:100EA20011966894F7FDE0DFE3DFFD010EF4DCDF6D
:100EB2000895ED91FC91119708950590F491E02D1C
:100EC20008957A936A93FA93EA930895F999FECF73
:100ED200FF93FFB7F894A1BDB2BDF89AE0B5FFBF8A
:100EE200FF910895F99B02C0A895FCCF9FB7F89493
:100EF200A1BDB2BDF89A80B5E81719F0E0BDFA9A23
:100F0200F99A9FBF08955A934A933A932A931A9350
:100F12000A9308955D814C813B812A811981088160
:100F22000895AC0FBD1F05900D928A95E1F70895C3
:00000001FF
